{
  "_format": "hh-sol-artifact-1",
  "contractName": "BountyContract",
  "sourceName": "contracts/BountyContract.sol",
  "abi": [
    {
      "anonymous": false,
      "inputs": [
        {
          "indexed": true,
          "internalType": "uint256",
          "name": "id",
          "type": "uint256"
        },
        {
          "indexed": true,
          "internalType": "address",
          "name": "assignee",
          "type": "address"
        }
      ],
      "name": "BountyAssigned",
      "type": "event"
    },
    {
      "anonymous": false,
      "inputs": [
        {
          "indexed": true,
          "internalType": "uint256",
          "name": "id",
          "type": "uint256"
        }
      ],
      "name": "BountyCancelled",
      "type": "event"
    },
    {
      "anonymous": false,
      "inputs": [
        {
          "indexed": true,
          "internalType": "uint256",
          "name": "id",
          "type": "uint256"
        }
      ],
      "name": "BountyCompleted",
      "type": "event"
    },
    {
      "anonymous": false,
      "inputs": [
        {
          "indexed": true,
          "internalType": "uint256",
          "name": "id",
          "type": "uint256"
        },
        {
          "indexed": true,
          "internalType": "address",
          "name": "employer",
          "type": "address"
        },
        {
          "indexed": false,
          "internalType": "string",
          "name": "title",
          "type": "string"
        },
        {
          "indexed": false,
          "internalType": "uint256",
          "name": "reward",
          "type": "uint256"
        },
        {
          "indexed": false,
          "internalType": "string",
          "name": "rewardToken",
          "type": "string"
        },
        {
          "indexed": false,
          "internalType": "uint256",
          "name": "deadline",
          "type": "uint256"
        }
      ],
      "name": "BountyCreated",
      "type": "event"
    },
    {
      "inputs": [
        {
          "internalType": "uint256",
          "name": "_bountyId",
          "type": "uint256"
        }
      ],
      "name": "applyForBounty",
      "outputs": [],
      "stateMutability": "nonpayable",
      "type": "function"
    },
    {
      "inputs": [
        {
          "internalType": "uint256",
          "name": "_bountyId",
          "type": "uint256"
        }
      ],
      "name": "cancelBounty",
      "outputs": [],
      "stateMutability": "nonpayable",
      "type": "function"
    },
    {
      "inputs": [
        {
          "internalType": "uint256",
          "name": "_bountyId",
          "type": "uint256"
        }
      ],
      "name": "completeBounty",
      "outputs": [],
      "stateMutability": "nonpayable",
      "type": "function"
    },
    {
      "inputs": [
        {
          "internalType": "string",
          "name": "_title",
          "type": "string"
        },
        {
          "internalType": "string",
          "name": "_description",
          "type": "string"
        },
        {
          "internalType": "uint256",
          "name": "_reward",
          "type": "uint256"
        },
        {
          "internalType": "string",
          "name": "_rewardToken",
          "type": "string"
        },
        {
          "internalType": "uint256",
          "name": "_deadline",
          "type": "uint256"
        }
      ],
      "name": "createBounty",
      "outputs": [
        {
          "internalType": "uint256",
          "name": "",
          "type": "uint256"
        }
      ],
      "stateMutability": "nonpayable",
      "type": "function"
    },
    {
      "inputs": [
        {
          "internalType": "address",
          "name": "_assignee",
          "type": "address"
        }
      ],
      "name": "getAssigneeBounties",
      "outputs": [
        {
          "internalType": "uint256[]",
          "name": "",
          "type": "uint256[]"
        }
      ],
      "stateMutability": "view",
      "type": "function"
    },
    {
      "inputs": [
        {
          "internalType": "uint256",
          "name": "_bountyId",
          "type": "uint256"
        }
      ],
      "name": "getBounty",
      "outputs": [
        {
          "internalType": "uint256",
          "name": "id",
          "type": "uint256"
        },
        {
          "internalType": "address",
          "name": "employer",
          "type": "address"
        },
        {
          "internalType": "string",
          "name": "title",
          "type": "string"
        },
        {
          "internalType": "string",
          "name": "description",
          "type": "string"
        },
        {
          "internalType": "uint256",
          "name": "reward",
          "type": "uint256"
        },
        {
          "internalType": "string",
          "name": "rewardToken",
          "type": "string"
        },
        {
          "internalType": "uint256",
          "name": "deadline",
          "type": "uint256"
        },
        {
          "internalType": "enum BountyContract.BountyStatus",
          "name": "status",
          "type": "uint8"
        },
        {
          "internalType": "address",
          "name": "assignee",
          "type": "address"
        },
        {
          "internalType": "uint256",
          "name": "createdAt",
          "type": "uint256"
        },
        {
          "internalType": "bool",
          "name": "exists",
          "type": "bool"
        }
      ],
      "stateMutability": "view",
      "type": "function"
    },
    {
      "inputs": [],
      "name": "getBountyCount",
      "outputs": [
        {
          "internalType": "uint256",
          "name": "",
          "type": "uint256"
        }
      ],
      "stateMutability": "view",
      "type": "function"
    },
    {
      "inputs": [
        {
          "internalType": "address",
          "name": "_employer",
          "type": "address"
        }
      ],
      "name": "getEmployerBounties",
      "outputs": [
        {
          "internalType": "uint256[]",
          "name": "",
          "type": "uint256[]"
        }
      ],
      "stateMutability": "view",
      "type": "function"
    }
  ],
  "bytecode": "0x608060405234801561001057600080fd5b50612053806100206000396000f3fe608060405234801561001057600080fd5b50600436106100885760003560e01c8063802885071161005b5780638028850714610127578063e5e5dff114610157578063ee8c4bbf14610173578063fd716a9c146101ad57610088565b806306641f7e1461008d57806308c00883146100ab578063139005ab146100db5780636d13fe8b146100f7575b600080fd5b6100956101c9565b6040516100a29190611131565b60405180910390f35b6100c560048036038101906100c091906111be565b6101d2565b6040516100d291906112a9565b60405180910390f35b6100f560048036038101906100f091906112f7565b610269565b005b610111600480360381019061010c919061146a565b610439565b60405161011e9190611131565b60405180910390f35b610141600480360381019061013c91906111be565b610822565b60405161014e91906112a9565b60405180910390f35b610171600480360381019061016c91906112f7565b6108b9565b005b61018d600480360381019061018891906112f7565b610a89565b6040516101a49b9a99989796959493929190611659565b60405180910390f35b6101c760048036038101906101c291906112f7565b610e42565b005b60008054905090565b6060600360008373ffffffffffffffffffffffffffffffffffffffff1673ffffffffffffffffffffffffffffffffffffffff16815260200190815260200160002080548060200260200160405190810160405280929190818152602001828054801561025d57602002820191906000526020600020905b815481526020019060010190808311610249575b50505050509050919050565b60006001600083815260200190815260200160002090508060090160009054906101000a900460ff166102d1576040517f08c379a00000000000000000000000000000000000000000000000000000000081526004016102c890611765565b60405180910390fd5b3373ffffffffffffffffffffffffffffffffffffffff168160010160009054906101000a900473ffffffffffffffffffffffffffffffffffffffff1673ffffffffffffffffffffffffffffffffffffffff1614610363576040517f08c379a000000000000000000000000000000000000000000000000000000000815260040161035a906117f7565b60405180910390fd5b60016003811115610377576103766115c7565b5b8160070160009054906101000a900460ff16600381111561039b5761039a6115c7565b5b146103db576040517f08c379a00000000000000000000000000000000000000000000000000000000081526004016103d290611863565b60405180910390fd5b60028160070160006101000a81548160ff02191690836003811115610403576104026115c7565b5b0217905550817f687045981c43db01605c41aa9dbf9296e20e6848624353e83979327e96434ccc60405160405180910390a25050565b60008086511161047e576040517f08c379a0000000000000000000000000000000000000000000000000000000008152600401610475906118cf565b60405180910390fd5b60008551116104c2576040517f08c379a00000000000000000000000000000000000000000000000000000000081526004016104b99061193b565b60405180910390fd5b60008411610505576040517f08c379a00000000000000000000000000000000000000000000000000000000081526004016104fc906119a7565b60405180910390fd5b428211610547576040517f08c379a000000000000000000000000000000000000000000000000000000000815260040161053e90611a13565b60405180910390fd5b60008081548092919061055990611a62565b919050555060008054905060006040518061016001604052808381526020013373ffffffffffffffffffffffffffffffffffffffff168152602001898152602001888152602001878152602001868152602001858152602001600060038111156105c6576105c56115c7565b5b8152602001600073ffffffffffffffffffffffffffffffffffffffff16815260200142815260200160011515815250905080600160008481526020019081526020016000206000820151816000015560208201518160010160006101000a81548173ffffffffffffffffffffffffffffffffffffffff021916908373ffffffffffffffffffffffffffffffffffffffff16021790555060408201518160020190816106719190611cb6565b5060608201518160030190816106879190611cb6565b506080820151816004015560a08201518160050190816106a79190611cb6565b5060c0820151816006015560e08201518160070160006101000a81548160ff021916908360038111156106dd576106dc6115c7565b5b02179055506101008201518160070160016101000a81548173ffffffffffffffffffffffffffffffffffffffff021916908373ffffffffffffffffffffffffffffffffffffffff16021790555061012082015181600801556101408201518160090160006101000a81548160ff021916908315150217905550905050600260003373ffffffffffffffffffffffffffffffffffffffff1673ffffffffffffffffffffffffffffffffffffffff1681526020019081526020016000208290806001815401808255809150506001900390600052602060002001600090919091909150553373ffffffffffffffffffffffffffffffffffffffff16827ff0044895daabf5c16d40f5d4093cb8358b1795b11ca47e648d5fc5e81240e43a8a89898960405161080c9493929190611d88565b60405180910390a3819250505095945050505050565b6060600260008373ffffffffffffffffffffffffffffffffffffffff1673ffffffffffffffffffffffffffffffffffffffff1681526020019081526020016000208054806020026020016040519081016040528092919081815260200182805480156108ad57602002820191906000526020600020905b815481526020019060010190808311610899575b50505050509050919050565b60006001600083815260200190815260200160002090508060090160009054906101000a900460ff16610921576040517f08c379a000000000000000000000000000000000000000000000000000000000815260040161091890611765565b60405180910390fd5b3373ffffffffffffffffffffffffffffffffffffffff168160010160009054906101000a900473ffffffffffffffffffffffffffffffffffffffff1673ffffffffffffffffffffffffffffffffffffffff16146109b3576040517f08c379a00000000000000000000000000000000000000000000000000000000081526004016109aa90611e27565b60405180910390fd5b600060038111156109c7576109c66115c7565b5b8160070160009054906101000a900460ff1660038111156109eb576109ea6115c7565b5b14610a2b576040517f08c379a0000000000000000000000000000000000000000000000000000000008152600401610a2290611e93565b60405180910390fd5b60038160070160006101000a81548160ff02191690836003811115610a5357610a526115c7565b5b0217905550817f92717314c0b0f9d632e1d46a0b8437778ff9daee1db8ec295f2bc0b57c4bcaac60405160405180910390a25050565b60008060608060006060600080600080600080600160008e815260200190815260200160002060405180610160016040529081600082015481526020016001820160009054906101000a900473ffffffffffffffffffffffffffffffffffffffff1673ffffffffffffffffffffffffffffffffffffffff1673ffffffffffffffffffffffffffffffffffffffff168152602001600282018054610b2b90611ad9565b80601f0160208091040260200160405190810160405280929190818152602001828054610b5790611ad9565b8015610ba45780601f10610b7957610100808354040283529160200191610ba4565b820191906000526020600020905b815481529060010190602001808311610b8757829003601f168201915b50505050508152602001600382018054610bbd90611ad9565b80601f0160208091040260200160405190810160405280929190818152602001828054610be990611ad9565b8015610c365780601f10610c0b57610100808354040283529160200191610c36565b820191906000526020600020905b815481529060010190602001808311610c1957829003601f168201915b5050505050815260200160048201548152602001600582018054610c5990611ad9565b80601f0160208091040260200160405190810160405280929190818152602001828054610c8590611ad9565b8015610cd25780601f10610ca757610100808354040283529160200191610cd2565b820191906000526020600020905b815481529060010190602001808311610cb557829003601f168201915b50505050508152602001600682015481526020016007820160009054906101000a900460ff166003811115610d0a57610d096115c7565b5b6003811115610d1c57610d1b6115c7565b5b81526020016007820160019054906101000a900473ffffffffffffffffffffffffffffffffffffffff1673ffffffffffffffffffffffffffffffffffffffff1673ffffffffffffffffffffffffffffffffffffffff168152602001600882015481526020016009820160009054906101000a900460ff1615151515815250509050806101400151610de2576040517f08c379a0000000000000000000000000000000000000000000000000000000008152600401610dd990611765565b60405180910390fd5b806000015181602001518260400151836060015184608001518560a001518660c001518760e001518861010001518961012001518a61014001519b509b509b509b509b509b509b509b509b509b509b505091939597999b90929496989a50565b60006001600083815260200190815260200160002090508060090160009054906101000a900460ff16610eaa576040517f08c379a0000000000000000000000000000000000000000000000000000000008152600401610ea190611765565b60405180910390fd5b60006003811115610ebe57610ebd6115c7565b5b8160070160009054906101000a900460ff166003811115610ee257610ee16115c7565b5b14610f22576040517f08c379a0000000000000000000000000000000000000000000000000000000008152600401610f1990611eff565b60405180910390fd5b3373ffffffffffffffffffffffffffffffffffffffff168160010160009054906101000a900473ffffffffffffffffffffffffffffffffffffffff1673ffffffffffffffffffffffffffffffffffffffff1603610fb4576040517f08c379a0000000000000000000000000000000000000000000000000000000008152600401610fab90611f91565b60405180910390fd5b80600601544210610ffa576040517f08c379a0000000000000000000000000000000000000000000000000000000008152600401610ff190611ffd565b60405180910390fd5b338160070160016101000a81548173ffffffffffffffffffffffffffffffffffffffff021916908373ffffffffffffffffffffffffffffffffffffffff16021790555060018160070160006101000a81548160ff02191690836003811115611065576110646115c7565b5b0217905550600360003373ffffffffffffffffffffffffffffffffffffffff1673ffffffffffffffffffffffffffffffffffffffff1681526020019081526020016000208290806001815401808255809150506001900390600052602060002001600090919091909150553373ffffffffffffffffffffffffffffffffffffffff16827fd637b8ac26becbb345d87656a15493d08519e2511ac15d993526c583268386dd60405160405180910390a35050565b6000819050919050565b61112b81611118565b82525050565b60006020820190506111466000830184611122565b92915050565b6000604051905090565b600080fd5b600080fd5b600073ffffffffffffffffffffffffffffffffffffffff82169050919050565b600061118b82611160565b9050919050565b61119b81611180565b81146111a657600080fd5b50565b6000813590506111b881611192565b92915050565b6000602082840312156111d4576111d3611156565b5b60006111e2848285016111a9565b91505092915050565b600081519050919050565b600082825260208201905092915050565b6000819050602082019050919050565b61122081611118565b82525050565b60006112328383611217565b60208301905092915050565b6000602082019050919050565b6000611256826111eb565b61126081856111f6565b935061126b83611207565b8060005b8381101561129c5781516112838882611226565b975061128e8361123e565b92505060018101905061126f565b5085935050505092915050565b600060208201905081810360008301526112c3818461124b565b905092915050565b6112d481611118565b81146112df57600080fd5b50565b6000813590506112f1816112cb565b92915050565b60006020828403121561130d5761130c611156565b5b600061131b848285016112e2565b91505092915050565b600080fd5b600080fd5b6000601f19601f8301169050919050565b7f4e487b7100000000000000000000000000000000000000000000000000000000600052604160045260246000fd5b6113778261132e565b810181811067ffffffffffffffff821117156113965761139561133f565b5b80604052505050565b60006113a961114c565b90506113b5828261136e565b919050565b600067ffffffffffffffff8211156113d5576113d461133f565b5b6113de8261132e565b9050602081019050919050565b82818337600083830152505050565b600061140d611408846113ba565b61139f565b90508281526020810184848401111561142957611428611329565b5b6114348482856113eb565b509392505050565b600082601f83011261145157611450611324565b5b81356114618482602086016113fa565b91505092915050565b600080600080600060a0868803121561148657611485611156565b5b600086013567ffffffffffffffff8111156114a4576114a361115b565b5b6114b08882890161143c565b955050602086013567ffffffffffffffff8111156114d1576114d061115b565b5b6114dd8882890161143c565b94505060406114ee888289016112e2565b935050606086013567ffffffffffffffff81111561150f5761150e61115b565b5b61151b8882890161143c565b925050608061152c888289016112e2565b9150509295509295909350565b61154281611180565b82525050565b600081519050919050565b600082825260208201905092915050565b60005b83811015611582578082015181840152602081019050611567565b60008484015250505050565b600061159982611548565b6115a38185611553565b93506115b3818560208601611564565b6115bc8161132e565b840191505092915050565b7f4e487b7100000000000000000000000000000000000000000000000000000000600052602160045260246000fd5b60048110611607576116066115c7565b5b50565b6000819050611618826115f6565b919050565b60006116288261160a565b9050919050565b6116388161161d565b82525050565b60008115159050919050565b6116538161163e565b82525050565b60006101608201905061166f600083018e611122565b61167c602083018d611539565b818103604083015261168e818c61158e565b905081810360608301526116a2818b61158e565b90506116b1608083018a611122565b81810360a08301526116c3818961158e565b90506116d260c0830188611122565b6116df60e083018761162f565b6116ed610100830186611539565b6116fb610120830185611122565b61170961014083018461164a565b9c9b505050505050505050505050565b7f426f756e747920646f6573206e6f742065786973740000000000000000000000600082015250565b600061174f601583611553565b915061175a82611719565b602082019050919050565b6000602082019050818103600083015261177e81611742565b9050919050565b7f4f6e6c7920656d706c6f7965722063616e20636f6d706c65746520626f756e7460008201527f7900000000000000000000000000000000000000000000000000000000000000602082015250565b60006117e1602183611553565b91506117ec82611785565b604082019050919050565b60006020820190508181036000830152611810816117d4565b9050919050565b7f426f756e7479206d75737420626520696e2070726f6772657373000000000000600082015250565b600061184d601a83611553565b915061185882611817565b602082019050919050565b6000602082019050818103600083015261187c81611840565b9050919050565b7f5469746c652063616e6e6f7420626520656d7074790000000000000000000000600082015250565b60006118b9601583611553565b91506118c482611883565b602082019050919050565b600060208201905081810360008301526118e8816118ac565b9050919050565b7f4465736372697074696f6e2063616e6e6f7420626520656d7074790000000000600082015250565b6000611925601b83611553565b9150611930826118ef565b602082019050919050565b6000602082019050818103600083015261195481611918565b9050919050565b7f526577617264206d7573742062652067726561746572207468616e2030000000600082015250565b6000611991601d83611553565b915061199c8261195b565b602082019050919050565b600060208201905081810360008301526119c081611984565b9050919050565b7f446561646c696e65206d75737420626520696e20746865206675747572650000600082015250565b60006119fd601e83611553565b9150611a08826119c7565b602082019050919050565b60006020820190508181036000830152611a2c816119f0565b9050919050565b7f4e487b7100000000000000000000000000000000000000000000000000000000600052601160045260246000fd5b6000611a6d82611118565b91507fffffffffffffffffffffffffffffffffffffffffffffffffffffffffffffffff8203611a9f57611a9e611a33565b5b600182019050919050565b7f4e487b7100000000000000000000000000000000000000000000000000000000600052602260045260246000fd5b60006002820490506001821680611af157607f821691505b602082108103611b0457611b03611aaa565b5b50919050565b60008190508160005260206000209050919050565b60006020601f8301049050919050565b600082821b905092915050565b600060088302611b6c7fffffffffffffffffffffffffffffffffffffffffffffffffffffffffffffffff82611b2f565b611b768683611b2f565b95508019841693508086168417925050509392505050565b6000819050919050565b6000611bb3611bae611ba984611118565b611b8e565b611118565b9050919050565b6000819050919050565b611bcd83611b98565b611be1611bd982611bba565b848454611b3c565b825550505050565b600090565b611bf6611be9565b611c01818484611bc4565b505050565b5b81811015611c2557611c1a600082611bee565b600181019050611c07565b5050565b601f821115611c6a57611c3b81611b0a565b611c4484611b1f565b81016020851015611c53578190505b611c67611c5f85611b1f565b830182611c06565b50505b505050565b600082821c905092915050565b6000611c8d60001984600802611c6f565b1980831691505092915050565b6000611ca68383611c7c565b9150826002028217905092915050565b611cbf82611548565b67ffffffffffffffff811115611cd857611cd761133f565b5b611ce28254611ad9565b611ced828285611c29565b600060209050601f831160018114611d205760008415611d0e578287015190505b611d188582611c9a565b865550611d80565b601f198416611d2e86611b0a565b60005b82811015611d5657848901518255600182019150602085019450602081019050611d31565b86831015611d735784890151611d6f601f891682611c7c565b8355505b6001600288020188555050505b505050505050565b60006080820190508181036000830152611da2818761158e565b9050611db16020830186611122565b8181036040830152611dc3818561158e565b9050611dd26060830184611122565b95945050505050565b7f4f6e6c7920656d706c6f7965722063616e2063616e63656c20626f756e747900600082015250565b6000611e11601f83611553565b9150611e1c82611ddb565b602082019050919050565b60006020820190508181036000830152611e4081611e04565b9050919050565b7f43616e206f6e6c792063616e63656c206f70656e20626f756e74696573000000600082015250565b6000611e7d601d83611553565b9150611e8882611e47565b602082019050919050565b60006020820190508181036000830152611eac81611e70565b9050919050565b7f426f756e7479206973206e6f74206f70656e0000000000000000000000000000600082015250565b6000611ee9601283611553565b9150611ef482611eb3565b602082019050919050565b60006020820190508181036000830152611f1881611edc565b9050919050565b7f456d706c6f7965722063616e6e6f74206170706c7920666f72206f776e20626f60008201527f756e747900000000000000000000000000000000000000000000000000000000602082015250565b6000611f7b602483611553565b9150611f8682611f1f565b604082019050919050565b60006020820190508181036000830152611faa81611f6e565b9050919050565b7f426f756e747920646561646c696e652068617320706173736564000000000000600082015250565b6000611fe7601a83611553565b9150611ff282611fb1565b602082019050919050565b6000602082019050818103600083015261201681611fda565b905091905056fea26469706673582212203b3a74abd1fdeca3d5cf90b0bc1c592906c506c49719d9e06ee490e92061681864736f6c63430008110033",
  "linkReferences": {},
  "deployedLinkReferences": {}
}