{
  "_format": "hh-sol-artifact-1",
  "contractName": "ResumeContract",
  "sourceName": "contracts/ResumeContract.sol",
  "abi": [
    {
      "anonymous": false,
      "inputs": [
        {
          "indexed": true,
          "internalType": "address",
          "name": "user",
          "type": "address"
        },
        {
          "indexed": false,
          "internalType": "string",
          "name": "ipfsHash",
          "type": "string"
        },
        {
          "indexed": false,
          "internalType": "uint256",
          "name": "timestamp",
          "type": "uint256"
        },
        {
          "indexed": false,
          "internalType": "string",
          "name": "fileName",
          "type": "string"
        }
      ],
      "name": "ResumeUploaded",
      "type": "event"
    },
    {
      "inputs": [
        {
          "internalType": "address",
          "name": "_user",
          "type": "address"
        }
      ],
      "name": "getResume",
      "outputs": [
        {
          "internalType": "string",
          "name": "",
          "type": "string"
        },
        {
          "internalType": "uint256",
          "name": "",
          "type": "uint256"
        },
        {
          "internalType": "string",
          "name": "",
          "type": "string"
        },
        {
          "internalType": "bool",
          "name": "",
          "type": "bool"
        }
      ],
      "stateMutability": "view",
      "type": "function"
    },
    {
      "inputs": [
        {
          "internalType": "address",
          "name": "_user",
          "type": "address"
        }
      ],
      "name": "hasResume",
      "outputs": [
        {
          "internalType": "bool",
          "name": "",
          "type": "bool"
        }
      ],
      "stateMutability": "view",
      "type": "function"
    },
    {
      "inputs": [
        {
          "internalType": "string",
          "name": "_ipfsHash",
          "type": "string"
        },
        {
          "internalType": "string",
          "name": "_fileName",
          "type": "string"
        }
      ],
      "name": "uploadResume",
      "outputs": [],
      "stateMutability": "nonpayable",
      "type": "function"
    }
  ],
  "bytecode": "0x608060405234801561001057600080fd5b50610c26806100206000396000f3fe608060405234801561001057600080fd5b50600436106100415760003560e01c8063311a5ae51461004657806332e89a42146100795780636dba272514610095575b600080fd5b610060600480360381019061005b91906104e9565b6100c5565b60405161007094939291906105da565b60405180910390f35b610093600480360381019061008e9190610762565b610286565b005b6100af60048036038101906100aa91906104e9565b61041f565b6040516100bc91906107da565b60405180910390f35b6060600060606000806000808773ffffffffffffffffffffffffffffffffffffffff1673ffffffffffffffffffffffffffffffffffffffff16815260200190815260200160002060405180608001604052908160008201805461012790610824565b80601f016020809104026020016040519081016040528092919081815260200182805461015390610824565b80156101a05780601f10610175576101008083540402835291602001916101a0565b820191906000526020600020905b81548152906001019060200180831161018357829003601f168201915b50505050508152602001600182015481526020016002820180546101c390610824565b80601f01602080910402602001604051908101604052809291908181526020018280546101ef90610824565b801561023c5780601f106102115761010080835404028352916020019161023c565b820191906000526020600020905b81548152906001019060200180831161021f57829003601f168201915b505050505081526020016003820160009054906101000a900460ff161515151581525050905080600001518160200151826040015183606001519450945094509450509193509193565b60008251116102ca576040517f08c379a00000000000000000000000000000000000000000000000000000000081526004016102c1906108a1565b60405180910390fd5b600081511161030e576040517f08c379a00000000000000000000000000000000000000000000000000000000081526004016103059061090d565b60405180910390fd5b6040518060800160405280838152602001428152602001828152602001600115158152506000803373ffffffffffffffffffffffffffffffffffffffff1673ffffffffffffffffffffffffffffffffffffffff16815260200190815260200160002060008201518160000190816103859190610ad9565b506020820151816001015560408201518160020190816103a59190610ad9565b5060608201518160030160006101000a81548160ff0219169083151502179055509050503373ffffffffffffffffffffffffffffffffffffffff167f065f5dc60a550e5c24d757fc1d2affad130f70d3f7fc6aca05750adc5f06d9b383428460405161041393929190610bab565b60405180910390a25050565b60008060008373ffffffffffffffffffffffffffffffffffffffff1673ffffffffffffffffffffffffffffffffffffffff16815260200190815260200160002060030160009054906101000a900460ff169050919050565b6000604051905090565b600080fd5b600080fd5b600073ffffffffffffffffffffffffffffffffffffffff82169050919050565b60006104b68261048b565b9050919050565b6104c6816104ab565b81146104d157600080fd5b50565b6000813590506104e3816104bd565b92915050565b6000602082840312156104ff576104fe610481565b5b600061050d848285016104d4565b91505092915050565b600081519050919050565b600082825260208201905092915050565b60005b83811015610550578082015181840152602081019050610535565b60008484015250505050565b6000601f19601f8301169050919050565b600061057882610516565b6105828185610521565b9350610592818560208601610532565b61059b8161055c565b840191505092915050565b6000819050919050565b6105b9816105a6565b82525050565b60008115159050919050565b6105d4816105bf565b82525050565b600060808201905081810360008301526105f4818761056d565b905061060360208301866105b0565b8181036040830152610615818561056d565b905061062460608301846105cb565b95945050505050565b600080fd5b600080fd5b7f4e487b7100000000000000000000000000000000000000000000000000000000600052604160045260246000fd5b61066f8261055c565b810181811067ffffffffffffffff8211171561068e5761068d610637565b5b80604052505050565b60006106a1610477565b90506106ad8282610666565b919050565b600067ffffffffffffffff8211156106cd576106cc610637565b5b6106d68261055c565b9050602081019050919050565b82818337600083830152505050565b6000610705610700846106b2565b610697565b90508281526020810184848401111561072157610720610632565b5b61072c8482856106e3565b509392505050565b600082601f8301126107495761074861062d565b5b81356107598482602086016106f2565b91505092915050565b6000806040838503121561077957610778610481565b5b600083013567ffffffffffffffff81111561079757610796610486565b5b6107a385828601610734565b925050602083013567ffffffffffffffff8111156107c4576107c3610486565b5b6107d085828601610734565b9150509250929050565b60006020820190506107ef60008301846105cb565b92915050565b7f4e487b7100000000000000000000000000000000000000000000000000000000600052602260045260246000fd5b6000600282049050600182168061083c57607f821691505b60208210810361084f5761084e6107f5565b5b50919050565b7f4950465320686173682063616e6e6f7420626520656d70747900000000000000600082015250565b600061088b601983610521565b915061089682610855565b602082019050919050565b600060208201905081810360008301526108ba8161087e565b9050919050565b7f46696c65206e616d652063616e6e6f7420626520656d70747900000000000000600082015250565b60006108f7601983610521565b9150610902826108c1565b602082019050919050565b60006020820190508181036000830152610926816108ea565b9050919050565b60008190508160005260206000209050919050565b60006020601f8301049050919050565b600082821b905092915050565b60006008830261098f7fffffffffffffffffffffffffffffffffffffffffffffffffffffffffffffffff82610952565b6109998683610952565b95508019841693508086168417925050509392505050565b6000819050919050565b60006109d66109d16109cc846105a6565b6109b1565b6105a6565b9050919050565b6000819050919050565b6109f0836109bb565b610a046109fc826109dd565b84845461095f565b825550505050565b600090565b610a19610a0c565b610a248184846109e7565b505050565b5b81811015610a4857610a3d600082610a11565b600181019050610a2a565b5050565b601f821115610a8d57610a5e8161092d565b610a6784610942565b81016020851015610a76578190505b610a8a610a8285610942565b830182610a29565b50505b505050565b600082821c905092915050565b6000610ab060001984600802610a92565b1980831691505092915050565b6000610ac98383610a9f565b9150826002028217905092915050565b610ae282610516565b67ffffffffffffffff811115610afb57610afa610637565b5b610b058254610824565b610b10828285610a4c565b600060209050601f831160018114610b435760008415610b31578287015190505b610b3b8582610abd565b865550610ba3565b601f198416610b518661092d565b60005b82811015610b7957848901518255600182019150602085019450602081019050610b54565b86831015610b965784890151610b92601f891682610a9f565b8355505b6001600288020188555050505b505050505050565b60006060820190508181036000830152610bc5818661056d565b9050610bd460208301856105b0565b8181036040830152610be6818461056d565b905094935050505056fea2646970667358221220ad034e84590b1dcb4465dc17a1712b76bc7b36ea123c9408e0515c3f23854eb764736f6c63430008110033",
  "linkReferences": {},
  "deployedLinkReferences": {}
}