{
  "_format": "hh-sol-artifact-1",
  "contractName": "ResumeContract",
  "sourceName": "contracts/contracts/ResumeContract.sol",
  "abi": [
    {
      "anonymous": false,
      "inputs": [
        {
          "indexed": true,
          "internalType": "address",
          "name": "user",
          "type": "address"
        },
        {
          "indexed": false,
          "internalType": "string",
          "name": "oldIpfsHash",
          "type": "string"
        },
        {
          "indexed": false,
          "internalType": "string",
          "name": "newIpfsHash",
          "type": "string"
        }
      ],
      "name": "ResumeUpdated",
      "type": "event"
    },
    {
      "anonymous": false,
      "inputs": [
        {
          "indexed": true,
          "internalType": "address",
          "name": "user",
          "type": "address"
        },
        {
          "indexed": false,
          "internalType": "string",
          "name": "ipfsHash",
          "type": "string"
        }
      ],
      "name": "ResumeUploaded",
      "type": "event"
    },
    {
      "inputs": [
        {
          "internalType": "address",
          "name": "user",
          "type": "address"
        }
      ],
      "name": "getResume",
      "outputs": [
        {
          "internalType": "string",
          "name": "",
          "type": "string"
        }
      ],
      "stateMutability": "view",
      "type": "function"
    },
    {
      "inputs": [
        {
          "internalType": "address",
          "name": "",
          "type": "address"
        }
      ],
      "name": "hasResume",
      "outputs": [
        {
          "internalType": "bool",
          "name": "",
          "type": "bool"
        }
      ],
      "stateMutability": "view",
      "type": "function"
    },
    {
      "inputs": [
        {
          "internalType": "address",
          "name": "",
          "type": "address"
        }
      ],
      "name": "resumes",
      "outputs": [
        {
          "internalType": "string",
          "name": "",
          "type": "string"
        }
      ],
      "stateMutability": "view",
      "type": "function"
    },
    {
      "inputs": [
        {
          "internalType": "string",
          "name": "ipfsHash",
          "type": "string"
        }
      ],
      "name": "uploadResume",
      "outputs": [],
      "stateMutability": "nonpayable",
      "type": "function"
    },
    {
      "inputs": [
        {
          "internalType": "address",
          "name": "user",
          "type": "address"
        }
      ],
      "name": "userHasResume",
      "outputs": [
        {
          "internalType": "bool",
          "name": "",
          "type": "bool"
        }
      ],
      "stateMutability": "view",
      "type": "function"
    }
  ],
  "bytecode": "0x608060405234801561001057600080fd5b50610dd4806100206000396000f3fe608060405234801561001057600080fd5b50600436106100575760003560e01c806325d771731461005c5780632e3239611461008c578063311a5ae5146100a85780636dba2725146100d8578063f82dbb5a14610108575b600080fd5b61007660048036038101906100719190610714565b610138565b604051610083919061075c565b60405180910390f35b6100a660048036038101906100a191906108bd565b61018e565b005b6100c260048036038101906100bd9190610714565b610486565b6040516100cf9190610985565b60405180910390f35b6100f260048036038101906100ed9190610714565b6105e2565b6040516100ff919061075c565b60405180910390f35b610122600480360381019061011d9190610714565b610602565b60405161012f9190610985565b60405180910390f35b6000600160008373ffffffffffffffffffffffffffffffffffffffff1673ffffffffffffffffffffffffffffffffffffffff16815260200190815260200160002060009054906101000a900460ff169050919050565b60008151116101d2576040517f08c379a00000000000000000000000000000000000000000000000000000000081526004016101c9906109f3565b60405180910390fd5b600160003373ffffffffffffffffffffffffffffffffffffffff1673ffffffffffffffffffffffffffffffffffffffff16815260200190815260200160002060009054906101000a900460ff16156103915760008060003373ffffffffffffffffffffffffffffffffffffffff1673ffffffffffffffffffffffffffffffffffffffff168152602001908152602001600020805461026f90610a42565b80601f016020809104026020016040519081016040528092919081815260200182805461029b90610a42565b80156102e85780601f106102bd576101008083540402835291602001916102e8565b820191906000526020600020905b8154815290600101906020018083116102cb57829003601f168201915b50505050509050816000803373ffffffffffffffffffffffffffffffffffffffff1673ffffffffffffffffffffffffffffffffffffffff168152602001908152602001600020908161033a9190610c29565b503373ffffffffffffffffffffffffffffffffffffffff167f75677f1fc8d4288c22571e3a4de5ac49dc7d564f19b709af442cb3d2329666978284604051610383929190610cfb565b60405180910390a250610483565b806000803373ffffffffffffffffffffffffffffffffffffffff1673ffffffffffffffffffffffffffffffffffffffff16815260200190815260200160002090816103dc9190610c29565b5060018060003373ffffffffffffffffffffffffffffffffffffffff1673ffffffffffffffffffffffffffffffffffffffff16815260200190815260200160002060006101000a81548160ff0219169083151502179055503373ffffffffffffffffffffffffffffffffffffffff167f12bf196a4580bd7631f39631584e95f3d56906e4b5d194ca4a46b1fd793b400c8260405161047a9190610985565b60405180910390a25b50565b6060600160008373ffffffffffffffffffffffffffffffffffffffff1673ffffffffffffffffffffffffffffffffffffffff16815260200190815260200160002060009054906101000a900460ff16610514576040517f08c379a000000000000000000000000000000000000000000000000000000000815260040161050b90610d7e565b60405180910390fd5b6000808373ffffffffffffffffffffffffffffffffffffffff1673ffffffffffffffffffffffffffffffffffffffff168152602001908152602001600020805461055d90610a42565b80601f016020809104026020016040519081016040528092919081815260200182805461058990610a42565b80156105d65780601f106105ab576101008083540402835291602001916105d6565b820191906000526020600020905b8154815290600101906020018083116105b957829003601f168201915b50505050509050919050565b60016020528060005260406000206000915054906101000a900460ff1681565b6000602052806000526040600020600091509050805461062190610a42565b80601f016020809104026020016040519081016040528092919081815260200182805461064d90610a42565b801561069a5780601f1061066f5761010080835404028352916020019161069a565b820191906000526020600020905b81548152906001019060200180831161067d57829003601f168201915b505050505081565b6000604051905090565b600080fd5b600080fd5b600073ffffffffffffffffffffffffffffffffffffffff82169050919050565b60006106e1826106b6565b9050919050565b6106f1816106d6565b81146106fc57600080fd5b50565b60008135905061070e816106e8565b92915050565b60006020828403121561072a576107296106ac565b5b6000610738848285016106ff565b91505092915050565b60008115159050919050565b61075681610741565b82525050565b6000602082019050610771600083018461074d565b92915050565b600080fd5b600080fd5b6000601f19601f8301169050919050565b7f4e487b7100000000000000000000000000000000000000000000000000000000600052604160045260246000fd5b6107ca82610781565b810181811067ffffffffffffffff821117156107e9576107e8610792565b5b80604052505050565b60006107fc6106a2565b905061080882826107c1565b919050565b600067ffffffffffffffff82111561082857610827610792565b5b61083182610781565b9050602081019050919050565b82818337600083830152505050565b600061086061085b8461080d565b6107f2565b90508281526020810184848401111561087c5761087b61077c565b5b61088784828561083e565b509392505050565b600082601f8301126108a4576108a3610777565b5b81356108b484826020860161084d565b91505092915050565b6000602082840312156108d3576108d26106ac565b5b600082013567ffffffffffffffff8111156108f1576108f06106b1565b5b6108fd8482850161088f565b91505092915050565b600081519050919050565b600082825260208201905092915050565b60005b83811015610940578082015181840152602081019050610925565b60008484015250505050565b600061095782610906565b6109618185610911565b9350610971818560208601610922565b61097a81610781565b840191505092915050565b6000602082019050818103600083015261099f818461094c565b905092915050565b7f496e76616c696420495046532068617368000000000000000000000000000000600082015250565b60006109dd601183610911565b91506109e8826109a7565b602082019050919050565b60006020820190508181036000830152610a0c816109d0565b9050919050565b7f4e487b7100000000000000000000000000000000000000000000000000000000600052602260045260246000fd5b60006002820490506001821680610a5a57607f821691505b602082108103610a6d57610a6c610a13565b5b50919050565b60008190508160005260206000209050919050565b60006020601f8301049050919050565b600082821b905092915050565b600060088302610ad57fffffffffffffffffffffffffffffffffffffffffffffffffffffffffffffffff82610a98565b610adf8683610a98565b95508019841693508086168417925050509392505050565b6000819050919050565b6000819050919050565b6000610b26610b21610b1c84610af7565b610b01565b610af7565b9050919050565b6000819050919050565b610b4083610b0b565b610b54610b4c82610b2d565b848454610aa5565b825550505050565b600090565b610b69610b5c565b610b74818484610b37565b505050565b5b81811015610b9857610b8d600082610b61565b600181019050610b7a565b5050565b601f821115610bdd57610bae81610a73565b610bb784610a88565b81016020851015610bc6578190505b610bda610bd285610a88565b830182610b79565b50505b505050565b600082821c905092915050565b6000610c0060001984600802610be2565b1980831691505092915050565b6000610c198383610bef565b9150826002028217905092915050565b610c3282610906565b67ffffffffffffffff811115610c4b57610c4a610792565b5b610c558254610a42565b610c60828285610b9c565b600060209050601f831160018114610c935760008415610c81578287015190505b610c8b8582610c0d565b865550610cf3565b601f198416610ca186610a73565b60005b82811015610cc957848901518255600182019150602085019450602081019050610ca4565b86831015610ce65784890151610ce2601f891682610bef565b8355505b6001600288020188555050505b505050505050565b60006040820190508181036000830152610d15818561094c565b90508181036020830152610d29818461094c565b90509392505050565b7f5573657220686173206e6f20726573756d650000000000000000000000000000600082015250565b6000610d68601283610911565b9150610d7382610d32565b602082019050919050565b60006020820190508181036000830152610d9781610d5b565b905091905056fea26469706673582212201b4fffc273e1b9e9ee39110a9fca61097eecace76163349888167be4f83f3ad264736f6c63430008110033",
  "linkReferences": {},
  "deployedLinkReferences": {}
}