{
  "_format": "hh-sol-artifact-1",
  "contractName": "BountyContract",
  "sourceName": "contracts/contracts/BountyContract.sol",
  "abi": [
    {
      "anonymous": false,
      "inputs": [
        {
          "indexed": true,
          "internalType": "uint256",
          "name": "taskId",
          "type": "uint256"
        },
        {
          "indexed": true,
          "internalType": "address",
          "name": "employer",
          "type": "address"
        },
        {
          "indexed": false,
          "internalType": "uint256",
          "name": "reward",
          "type": "uint256"
        }
      ],
      "name": "TaskCancelled",
      "type": "event"
    },
    {
      "anonymous": false,
      "inputs": [
        {
          "indexed": true,
          "internalType": "uint256",
          "name": "taskId",
          "type": "uint256"
        },
        {
          "indexed": true,
          "internalType": "address",
          "name": "winner",
          "type": "address"
        },
        {
          "indexed": false,
          "internalType": "uint256",
          "name": "reward",
          "type": "uint256"
        }
      ],
      "name": "TaskCompleted",
      "type": "event"
    },
    {
      "anonymous": false,
      "inputs": [
        {
          "indexed": true,
          "internalType": "uint256",
          "name": "taskId",
          "type": "uint256"
        },
        {
          "indexed": true,
          "internalType": "address",
          "name": "employer",
          "type": "address"
        },
        {
          "indexed": false,
          "internalType": "uint256",
          "name": "reward",
          "type": "uint256"
        },
        {
          "indexed": false,
          "internalType": "string",
          "name": "offChainTaskId",
          "type": "string"
        }
      ],
      "name": "TaskCreated",
      "type": "event"
    },
    {
      "inputs": [
        {
          "internalType": "uint256",
          "name": "taskId",
          "type": "uint256"
        }
      ],
      "name": "cancelTask",
      "outputs": [],
      "stateMutability": "nonpayable",
      "type": "function"
    },
    {
      "inputs": [
        {
          "internalType": "uint256",
          "name": "taskId",
          "type": "uint256"
        },
        {
          "internalType": "address",
          "name": "winner",
          "type": "address"
        }
      ],
      "name": "completeTask",
      "outputs": [],
      "stateMutability": "nonpayable",
      "type": "function"
    },
    {
      "inputs": [
        {
          "internalType": "string",
          "name": "offChainTaskId",
          "type": "string"
        }
      ],
      "name": "createTask",
      "outputs": [],
      "stateMutability": "payable",
      "type": "function"
    },
    {
      "inputs": [
        {
          "internalType": "uint256",
          "name": "taskId",
          "type": "uint256"
        }
      ],
      "name": "getTask",
      "outputs": [
        {
          "components": [
            {
              "internalType": "address",
              "name": "employer",
              "type": "address"
            },
            {
              "internalType": "uint256",
              "name": "reward",
              "type": "uint256"
            },
            {
              "internalType": "address",
              "name": "winner",
              "type": "address"
            },
            {
              "internalType": "bool",
              "name": "completed",
              "type": "bool"
            },
            {
              "internalType": "string",
              "name": "taskId",
              "type": "string"
            },
            {
              "internalType": "uint256",
              "name": "createdAt",
              "type": "uint256"
            }
          ],
          "internalType": "struct BountyContract.Task",
          "name": "",
          "type": "tuple"
        }
      ],
      "stateMutability": "view",
      "type": "function"
    },
    {
      "inputs": [],
      "name": "taskCount",
      "outputs": [
        {
          "internalType": "uint256",
          "name": "",
          "type": "uint256"
        }
      ],
      "stateMutability": "view",
      "type": "function"
    },
    {
      "inputs": [
        {
          "internalType": "uint256",
          "name": "",
          "type": "uint256"
        }
      ],
      "name": "tasks",
      "outputs": [
        {
          "internalType": "address",
          "name": "employer",
          "type": "address"
        },
        {
          "internalType": "uint256",
          "name": "reward",
          "type": "uint256"
        },
        {
          "internalType": "address",
          "name": "winner",
          "type": "address"
        },
        {
          "internalType": "bool",
          "name": "completed",
          "type": "bool"
        },
        {
          "internalType": "string",
          "name": "taskId",
          "type": "string"
        },
        {
          "internalType": "uint256",
          "name": "createdAt",
          "type": "uint256"
        }
      ],
      "stateMutability": "view",
      "type": "function"
    }
  ],
  "bytecode": "0x608060405234801561001057600080fd5b506118ba806100206000396000f3fe6080604052600436106100555760003560e01c8063111002aa1461005a5780631d65e77e1461007657806329e517f4146100b35780637eec20a8146100dc5780638d97767214610105578063b6cb58a514610147575b600080fd5b610074600480360381019061006f9190610d66565b610172565b005b34801561008257600080fd5b5061009d60048036038101906100989190610de5565b61036f565b6040516100aa9190610f85565b60405180910390f35b3480156100bf57600080fd5b506100da60048036038101906100d59190610fd3565b61054c565b005b3480156100e857600080fd5b5061010360048036038101906100fe9190610de5565b61081e565b005b34801561011157600080fd5b5061012c60048036038101906101279190610de5565b610a91565b60405161013e9695949392919061108a565b60405180910390f35b34801561015357600080fd5b5061015c610ba2565b60405161016991906110f2565b60405180910390f35b600034116101b5576040517f08c379a00000000000000000000000000000000000000000000000000000000081526004016101ac90611159565b60405180910390fd5b6040518060c001604052803373ffffffffffffffffffffffffffffffffffffffff168152602001348152602001600073ffffffffffffffffffffffffffffffffffffffff16815260200160001515815260200182815260200142815250600080600154815260200190815260200160002060008201518160000160006101000a81548173ffffffffffffffffffffffffffffffffffffffff021916908373ffffffffffffffffffffffffffffffffffffffff1602179055506020820151816001015560408201518160020160006101000a81548173ffffffffffffffffffffffffffffffffffffffff021916908373ffffffffffffffffffffffffffffffffffffffff16021790555060608201518160020160146101000a81548160ff02191690831515021790555060808201518160030190816102f39190611385565b5060a082015181600401559050503373ffffffffffffffffffffffffffffffffffffffff166001547fedce45cc3fc2bea98c94b72104f4a750dcc91bd183a01870ed4f93a365eba5b9348460405161034c929190611457565b60405180910390a360016000815480929190610367906114b6565b919050555050565b610377610ba8565b60015482106103bb576040517f08c379a00000000000000000000000000000000000000000000000000000000081526004016103b29061154a565b60405180910390fd5b6000808381526020019081526020016000206040518060c00160405290816000820160009054906101000a900473ffffffffffffffffffffffffffffffffffffffff1673ffffffffffffffffffffffffffffffffffffffff1673ffffffffffffffffffffffffffffffffffffffff168152602001600182015481526020016002820160009054906101000a900473ffffffffffffffffffffffffffffffffffffffff1673ffffffffffffffffffffffffffffffffffffffff1673ffffffffffffffffffffffffffffffffffffffff1681526020016002820160149054906101000a900460ff161515151581526020016003820180546104b9906111a8565b80601f01602080910402602001604051908101604052809291908181526020018280546104e5906111a8565b80156105325780601f1061050757610100808354040283529160200191610532565b820191906000526020600020905b81548152906001019060200180831161051557829003601f168201915b505050505081526020016004820154815250509050919050565b600080600084815260200190815260200160002090508060000160009054906101000a900473ffffffffffffffffffffffffffffffffffffffff1673ffffffffffffffffffffffffffffffffffffffff163373ffffffffffffffffffffffffffffffffffffffff16146105f4576040517f08c379a00000000000000000000000000000000000000000000000000000000081526004016105eb906115dc565b60405180910390fd5b8060020160149054906101000a900460ff1615610646576040517f08c379a000000000000000000000000000000000000000000000000000000000815260040161063d90611648565b60405180910390fd5b600073ffffffffffffffffffffffffffffffffffffffff168273ffffffffffffffffffffffffffffffffffffffff16036106b5576040517f08c379a00000000000000000000000000000000000000000000000000000000081526004016106ac906116b4565b60405180910390fd5b818160020160006101000a81548173ffffffffffffffffffffffffffffffffffffffff021916908373ffffffffffffffffffffffffffffffffffffffff16021790555060018160020160146101000a81548160ff02191690831515021790555060008273ffffffffffffffffffffffffffffffffffffffff16826001015460405161073f90611705565b60006040518083038185875af1925050503d806000811461077c576040519150601f19603f3d011682016040523d82523d6000602084013e610781565b606091505b50509050806107c5576040517f08c379a00000000000000000000000000000000000000000000000000000000081526004016107bc90611766565b60405180910390fd5b8273ffffffffffffffffffffffffffffffffffffffff16847f843af93d40addceac6932508439844b897d4df9e971db326d557e3cdaa9f3ebf846001015460405161081091906110f2565b60405180910390a350505050565b600080600083815260200190815260200160002090508060000160009054906101000a900473ffffffffffffffffffffffffffffffffffffffff1673ffffffffffffffffffffffffffffffffffffffff163373ffffffffffffffffffffffffffffffffffffffff16146108c6576040517f08c379a00000000000000000000000000000000000000000000000000000000081526004016108bd906117f8565b60405180910390fd5b8060020160149054906101000a900460ff1615610918576040517f08c379a000000000000000000000000000000000000000000000000000000000815260040161090f90611648565b60405180910390fd5b6000816001015490506000826001018190555060018260020160146101000a81548160ff02191690831515021790555060008260000160009054906101000a900473ffffffffffffffffffffffffffffffffffffffff1673ffffffffffffffffffffffffffffffffffffffff168260405161099290611705565b60006040518083038185875af1925050503d80600081146109cf576040519150601f19603f3d011682016040523d82523d6000602084013e6109d4565b606091505b5050905080610a18576040517f08c379a0000000000000000000000000000000000000000000000000000000008152600401610a0f90611864565b60405180910390fd5b8260000160009054906101000a900473ffffffffffffffffffffffffffffffffffffffff1673ffffffffffffffffffffffffffffffffffffffff16847f06f63d695245e4cf8f0b7aae0b8da95876a4b173ba8d0d4466cc83c357dda3a884604051610a8391906110f2565b60405180910390a350505050565b60006020528060005260406000206000915090508060000160009054906101000a900473ffffffffffffffffffffffffffffffffffffffff16908060010154908060020160009054906101000a900473ffffffffffffffffffffffffffffffffffffffff16908060020160149054906101000a900460ff1690806003018054610b19906111a8565b80601f0160208091040260200160405190810160405280929190818152602001828054610b45906111a8565b8015610b925780601f10610b6757610100808354040283529160200191610b92565b820191906000526020600020905b815481529060010190602001808311610b7557829003601f168201915b5050505050908060040154905086565b60015481565b6040518060c00160405280600073ffffffffffffffffffffffffffffffffffffffff16815260200160008152602001600073ffffffffffffffffffffffffffffffffffffffff16815260200160001515815260200160608152602001600081525090565b6000604051905090565b600080fd5b600080fd5b600080fd5b600080fd5b6000601f19601f8301169050919050565b7f4e487b7100000000000000000000000000000000000000000000000000000000600052604160045260246000fd5b610c7382610c2a565b810181811067ffffffffffffffff82111715610c9257610c91610c3b565b5b80604052505050565b6000610ca5610c0c565b9050610cb18282610c6a565b919050565b600067ffffffffffffffff821115610cd157610cd0610c3b565b5b610cda82610c2a565b9050602081019050919050565b82818337600083830152505050565b6000610d09610d0484610cb6565b610c9b565b905082815260208101848484011115610d2557610d24610c25565b5b610d30848285610ce7565b509392505050565b600082601f830112610d4d57610d4c610c20565b5b8135610d5d848260208601610cf6565b91505092915050565b600060208284031215610d7c57610d7b610c16565b5b600082013567ffffffffffffffff811115610d9a57610d99610c1b565b5b610da684828501610d38565b91505092915050565b6000819050919050565b610dc281610daf565b8114610dcd57600080fd5b50565b600081359050610ddf81610db9565b92915050565b600060208284031215610dfb57610dfa610c16565b5b6000610e0984828501610dd0565b91505092915050565b600073ffffffffffffffffffffffffffffffffffffffff82169050919050565b6000610e3d82610e12565b9050919050565b610e4d81610e32565b82525050565b610e5c81610daf565b82525050565b60008115159050919050565b610e7781610e62565b82525050565b600081519050919050565b600082825260208201905092915050565b60005b83811015610eb7578082015181840152602081019050610e9c565b60008484015250505050565b6000610ece82610e7d565b610ed88185610e88565b9350610ee8818560208601610e99565b610ef181610c2a565b840191505092915050565b600060c083016000830151610f146000860182610e44565b506020830151610f276020860182610e53565b506040830151610f3a6040860182610e44565b506060830151610f4d6060860182610e6e565b5060808301518482036080860152610f658282610ec3565b91505060a0830151610f7a60a0860182610e53565b508091505092915050565b60006020820190508181036000830152610f9f8184610efc565b905092915050565b610fb081610e32565b8114610fbb57600080fd5b50565b600081359050610fcd81610fa7565b92915050565b60008060408385031215610fea57610fe9610c16565b5b6000610ff885828601610dd0565b925050602061100985828601610fbe565b9150509250929050565b61101c81610e32565b82525050565b61102b81610daf565b82525050565b61103a81610e62565b82525050565b600082825260208201905092915050565b600061105c82610e7d565b6110668185611040565b9350611076818560208601610e99565b61107f81610c2a565b840191505092915050565b600060c08201905061109f6000830189611013565b6110ac6020830188611022565b6110b96040830187611013565b6110c66060830186611031565b81810360808301526110d88185611051565b90506110e760a0830184611022565b979650505050505050565b60006020820190506111076000830184611022565b92915050565b7f526577617264206d7573742062652067726561746572207468616e2030000000600082015250565b6000611143601d83611040565b915061114e8261110d565b602082019050919050565b6000602082019050818103600083015261117281611136565b9050919050565b7f4e487b7100000000000000000000000000000000000000000000000000000000600052602260045260246000fd5b600060028204905060018216806111c057607f821691505b6020821081036111d3576111d2611179565b5b50919050565b60008190508160005260206000209050919050565b60006020601f8301049050919050565b600082821b905092915050565b60006008830261123b7fffffffffffffffffffffffffffffffffffffffffffffffffffffffffffffffff826111fe565b61124586836111fe565b95508019841693508086168417925050509392505050565b6000819050919050565b600061128261127d61127884610daf565b61125d565b610daf565b9050919050565b6000819050919050565b61129c83611267565b6112b06112a882611289565b84845461120b565b825550505050565b600090565b6112c56112b8565b6112d0818484611293565b505050565b5b818110156112f4576112e96000826112bd565b6001810190506112d6565b5050565b601f8211156113395761130a816111d9565b611313846111ee565b81016020851015611322578190505b61133661132e856111ee565b8301826112d5565b50505b505050565b600082821c905092915050565b600061135c6000198460080261133e565b1980831691505092915050565b6000611375838361134b565b9150826002028217905092915050565b61138e82610e7d565b67ffffffffffffffff8111156113a7576113a6610c3b565b5b6113b182546111a8565b6113bc8282856112f8565b600060209050601f8311600181146113ef57600084156113dd578287015190505b6113e78582611369565b86555061144f565b601f1984166113fd866111d9565b60005b8281101561142557848901518255600182019150602085019450602081019050611400565b86831015611442578489015161143e601f89168261134b565b8355505b6001600288020188555050505b505050505050565b600060408201905061146c6000830185611022565b818103602083015261147e8184611051565b90509392505050565b7f4e487b7100000000000000000000000000000000000000000000000000000000600052601160045260246000fd5b60006114c182610daf565b91507fffffffffffffffffffffffffffffffffffffffffffffffffffffffffffffffff82036114f3576114f2611487565b5b600182019050919050565b7f5461736b20646f6573206e6f7420657869737400000000000000000000000000600082015250565b6000611534601383611040565b915061153f826114fe565b602082019050919050565b6000602082019050818103600083015261156381611527565b9050919050565b7f4f6e6c7920656d706c6f7965722063616e20636f6d706c65746520746865207460008201527f61736b0000000000000000000000000000000000000000000000000000000000602082015250565b60006115c6602383611040565b91506115d18261156a565b604082019050919050565b600060208201905081810360008301526115f5816115b9565b9050919050565b7f5461736b20616c726561647920636f6d706c6574656400000000000000000000600082015250565b6000611632601683611040565b915061163d826115fc565b602082019050919050565b6000602082019050818103600083015261166181611625565b9050919050565b7f496e76616c69642077696e6e6572206164647265737300000000000000000000600082015250565b600061169e601683611040565b91506116a982611668565b602082019050919050565b600060208201905081810360008301526116cd81611691565b9050919050565b600081905092915050565b50565b60006116ef6000836116d4565b91506116fa826116df565b600082019050919050565b6000611710826116e2565b9150819050919050565b7f5472616e73666572206661696c65640000000000000000000000000000000000600082015250565b6000611750600f83611040565b915061175b8261171a565b602082019050919050565b6000602082019050818103600083015261177f81611743565b9050919050565b7f4f6e6c7920656d706c6f7965722063616e2063616e63656c207468652074617360008201527f6b00000000000000000000000000000000000000000000000000000000000000602082015250565b60006117e2602183611040565b91506117ed82611786565b604082019050919050565b60006020820190508181036000830152611811816117d5565b9050919050565b7f526566756e64206661696c656400000000000000000000000000000000000000600082015250565b600061184e600d83611040565b915061185982611818565b602082019050919050565b6000602082019050818103600083015261187d81611841565b905091905056fea2646970667358221220008f7deb6033022dc120589eca9c2e5998bfd2ab986e49a453445fa13226c77964736f6c63430008110033",
  "linkReferences": {},
  "deployedLinkReferences": {}
}